{
  "contractName": "BUSDMaker",
  "abi": [
    {
      "constant": true,
      "inputs": [],
      "name": "name",
      "outputs": [
        {
          "name": "",
          "type": "string"
        }
      ],
      "payable": false,
      "stateMutability": "view",
      "type": "function"
    },
    {
      "constant": false,
      "inputs": [
        {
          "name": "spender",
          "type": "address"
        },
        {
          "name": "amount",
          "type": "uint256"
        }
      ],
      "name": "approve",
      "outputs": [
        {
          "name": "",
          "type": "bool"
        }
      ],
      "payable": false,
      "stateMutability": "nonpayable",
      "type": "function"
    },
    {
      "constant": true,
      "inputs": [],
      "name": "totalSupply",
      "outputs": [
        {
          "name": "",
          "type": "uint256"
        }
      ],
      "payable": false,
      "stateMutability": "view",
      "type": "function"
    },
    {
      "constant": false,
      "inputs": [
        {
          "name": "sender",
          "type": "address"
        },
        {
          "name": "recipient",
          "type": "address"
        },
        {
          "name": "amount",
          "type": "uint256"
        }
      ],
      "name": "transferFrom",
      "outputs": [
        {
          "name": "",
          "type": "bool"
        }
      ],
      "payable": false,
      "stateMutability": "nonpayable",
      "type": "function"
    },
    {
      "constant": true,
      "inputs": [],
      "name": "limitSupply",
      "outputs": [
        {
          "name": "",
          "type": "uint256"
        }
      ],
      "payable": false,
      "stateMutability": "view",
      "type": "function"
    },
    {
      "constant": true,
      "inputs": [],
      "name": "totalTokenStaked",
      "outputs": [
        {
          "name": "",
          "type": "uint256"
        }
      ],
      "payable": false,
      "stateMutability": "view",
      "type": "function"
    },
    {
      "constant": true,
      "inputs": [],
      "name": "decimals",
      "outputs": [
        {
          "name": "",
          "type": "uint8"
        }
      ],
      "payable": false,
      "stateMutability": "view",
      "type": "function"
    },
    {
      "constant": false,
      "inputs": [
        {
          "name": "spender",
          "type": "address"
        },
        {
          "name": "addedValue",
          "type": "uint256"
        }
      ],
      "name": "increaseAllowance",
      "outputs": [
        {
          "name": "",
          "type": "bool"
        }
      ],
      "payable": false,
      "stateMutability": "nonpayable",
      "type": "function"
    },
    {
      "constant": true,
      "inputs": [
        {
          "name": "account",
          "type": "address"
        }
      ],
      "name": "balanceOf",
      "outputs": [
        {
          "name": "",
          "type": "uint256"
        }
      ],
      "payable": false,
      "stateMutability": "view",
      "type": "function"
    },
    {
      "constant": true,
      "inputs": [],
      "name": "totalBUSDStaked",
      "outputs": [
        {
          "name": "",
          "type": "uint256"
        }
      ],
      "payable": false,
      "stateMutability": "view",
      "type": "function"
    },
    {
      "constant": true,
      "inputs": [],
      "name": "availableSupply",
      "outputs": [
        {
          "name": "",
          "type": "uint256"
        }
      ],
      "payable": false,
      "stateMutability": "view",
      "type": "function"
    },
    {
      "constant": true,
      "inputs": [],
      "name": "symbol",
      "outputs": [
        {
          "name": "",
          "type": "string"
        }
      ],
      "payable": false,
      "stateMutability": "view",
      "type": "function"
    },
    {
      "constant": false,
      "inputs": [
        {
          "name": "spender",
          "type": "address"
        },
        {
          "name": "subtractedValue",
          "type": "uint256"
        }
      ],
      "name": "decreaseAllowance",
      "outputs": [
        {
          "name": "",
          "type": "bool"
        }
      ],
      "payable": false,
      "stateMutability": "nonpayable",
      "type": "function"
    },
    {
      "constant": false,
      "inputs": [
        {
          "name": "to",
          "type": "address"
        },
        {
          "name": "value",
          "type": "uint256"
        }
      ],
      "name": "transfer",
      "outputs": [
        {
          "name": "",
          "type": "bool"
        }
      ],
      "payable": false,
      "stateMutability": "nonpayable",
      "type": "function"
    },
    {
      "constant": true,
      "inputs": [],
      "name": "totalUsers",
      "outputs": [
        {
          "name": "",
          "type": "uint256"
        }
      ],
      "payable": false,
      "stateMutability": "view",
      "type": "function"
    },
    {
      "constant": true,
      "inputs": [
        {
          "name": "",
          "type": "uint256"
        }
      ],
      "name": "stakings",
      "outputs": [
        {
          "name": "id",
          "type": "uint256"
        },
        {
          "name": "addr",
          "type": "address"
        },
        {
          "name": "amount",
          "type": "uint256"
        },
        {
          "name": "period",
          "type": "uint8"
        },
        {
          "name": "startTimeStake",
          "type": "uint256"
        }
      ],
      "payable": false,
      "stateMutability": "view",
      "type": "function"
    },
    {
      "constant": false,
      "inputs": [
        {
          "name": "spender",
          "type": "address"
        },
        {
          "name": "amount",
          "type": "uint256"
        },
        {
          "name": "extraData",
          "type": "bytes"
        }
      ],
      "name": "approveAndCall",
      "outputs": [
        {
          "name": "",
          "type": "bool"
        }
      ],
      "payable": false,
      "stateMutability": "nonpayable",
      "type": "function"
    },
    {
      "constant": true,
      "inputs": [
        {
          "name": "owner",
          "type": "address"
        },
        {
          "name": "spender",
          "type": "address"
        }
      ],
      "name": "allowance",
      "outputs": [
        {
          "name": "",
          "type": "uint256"
        }
      ],
      "payable": false,
      "stateMutability": "view",
      "type": "function"
    },
    {
      "inputs": [],
      "payable": false,
      "stateMutability": "nonpayable",
      "type": "constructor"
    },
    {
      "anonymous": false,
      "inputs": [
        {
          "indexed": true,
          "name": "account",
          "type": "address"
        },
        {
          "indexed": false,
          "name": "txType",
          "type": "string"
        },
        {
          "indexed": false,
          "name": "tokenAmount",
          "type": "uint256"
        },
        {
          "indexed": false,
          "name": "trxAmount",
          "type": "uint256"
        }
      ],
      "name": "TokenOperation",
      "type": "event"
    },
    {
      "anonymous": false,
      "inputs": [
        {
          "indexed": true,
          "name": "from",
          "type": "address"
        },
        {
          "indexed": true,
          "name": "to",
          "type": "address"
        },
        {
          "indexed": false,
          "name": "value",
          "type": "uint256"
        }
      ],
      "name": "Transfer",
      "type": "event"
    },
    {
      "anonymous": false,
      "inputs": [
        {
          "indexed": true,
          "name": "owner",
          "type": "address"
        },
        {
          "indexed": true,
          "name": "spender",
          "type": "address"
        },
        {
          "indexed": false,
          "name": "value",
          "type": "uint256"
        }
      ],
      "name": "Approval",
      "type": "event"
    },
    {
      "constant": false,
      "inputs": [
        {
          "name": "referrer",
          "type": "address"
        },
        {
          "name": "_amount",
          "type": "uint256"
        }
      ],
      "name": "stakeBUSD",
      "outputs": [],
      "payable": true,
      "stateMutability": "payable",
      "type": "function"
    },
    {
      "constant": false,
      "inputs": [
        {
          "name": "tokenAmount",
          "type": "uint256"
        },
        {
          "name": "_periodLocked",
          "type": "uint256"
        }
      ],
      "name": "stakeToken",
      "outputs": [],
      "payable": false,
      "stateMutability": "nonpayable",
      "type": "function"
    },
    {
      "constant": false,
      "inputs": [
        {
          "name": "_id",
          "type": "uint256"
        }
      ],
      "name": "unStakeToken",
      "outputs": [],
      "payable": false,
      "stateMutability": "nonpayable",
      "type": "function"
    },
    {
      "constant": true,
      "inputs": [
        {
          "name": "_addr",
          "type": "address"
        },
        {
          "name": "_id",
          "type": "uint256"
        },
        {
          "name": "_daily",
          "type": "uint256"
        }
      ],
      "name": "getStakeTokenReward",
      "outputs": [
        {
          "name": "value",
          "type": "uint256"
        }
      ],
      "payable": false,
      "stateMutability": "view",
      "type": "function"
    },
    {
      "constant": false,
      "inputs": [],
      "name": "claimToken_M",
      "outputs": [],
      "payable": false,
      "stateMutability": "nonpayable",
      "type": "function"
    },
    {
      "constant": false,
      "inputs": [],
      "name": "claimToken_T",
      "outputs": [],
      "payable": false,
      "stateMutability": "nonpayable",
      "type": "function"
    },
    {
      "constant": false,
      "inputs": [
        {
          "name": "tokenAmount",
          "type": "uint256"
        }
      ],
      "name": "sellToken",
      "outputs": [],
      "payable": false,
      "stateMutability": "nonpayable",
      "type": "function"
    },
    {
      "constant": true,
      "inputs": [
        {
          "name": "_addr",
          "type": "address"
        }
      ],
      "name": "getUserUnclaimedTokens_M",
      "outputs": [
        {
          "name": "value",
          "type": "uint256"
        }
      ],
      "payable": false,
      "stateMutability": "view",
      "type": "function"
    },
    {
      "constant": true,
      "inputs": [
        {
          "name": "_addr",
          "type": "address"
        }
      ],
      "name": "getUserUnclaimedTokens_T",
      "outputs": [
        {
          "name": "value",
          "type": "uint256"
        }
      ],
      "payable": false,
      "stateMutability": "view",
      "type": "function"
    },
    {
      "constant": true,
      "inputs": [
        {
          "name": "_addr",
          "type": "address"
        }
      ],
      "name": "getUserTimeToNextAirdrop",
      "outputs": [
        {
          "name": "",
          "type": "uint256"
        }
      ],
      "payable": false,
      "stateMutability": "view",
      "type": "function"
    },
    {
      "constant": true,
      "inputs": [],
      "name": "getContractBUSDBalance",
      "outputs": [
        {
          "name": "",
          "type": "uint256"
        }
      ],
      "payable": false,
      "stateMutability": "view",
      "type": "function"
    },
    {
      "constant": true,
      "inputs": [],
      "name": "getContractTokenBalance",
      "outputs": [
        {
          "name": "",
          "type": "uint256"
        }
      ],
      "payable": false,
      "stateMutability": "view",
      "type": "function"
    },
    {
      "constant": true,
      "inputs": [],
      "name": "getAPY_M",
      "outputs": [
        {
          "name": "",
          "type": "uint256"
        }
      ],
      "payable": false,
      "stateMutability": "view",
      "type": "function"
    },
    {
      "constant": true,
      "inputs": [
        {
          "name": "_addr",
          "type": "address"
        }
      ],
      "name": "getUserBUSDBalance",
      "outputs": [
        {
          "name": "",
          "type": "uint256"
        }
      ],
      "payable": false,
      "stateMutability": "view",
      "type": "function"
    },
    {
      "constant": true,
      "inputs": [
        {
          "name": "_addr",
          "type": "address"
        }
      ],
      "name": "getUserTokenBalance",
      "outputs": [
        {
          "name": "",
          "type": "uint256"
        }
      ],
      "payable": false,
      "stateMutability": "view",
      "type": "function"
    },
    {
      "constant": true,
      "inputs": [],
      "name": "getUserTokensAccumulated",
      "outputs": [
        {
          "name": "",
          "type": "uint256"
        }
      ],
      "payable": false,
      "stateMutability": "view",
      "type": "function"
    },
    {
      "constant": true,
      "inputs": [
        {
          "name": "_addr",
          "type": "address"
        }
      ],
      "name": "getUserReferrer",
      "outputs": [
        {
          "name": "",
          "type": "address"
        }
      ],
      "payable": false,
      "stateMutability": "view",
      "type": "function"
    },
    {
      "constant": true,
      "inputs": [
        {
          "name": "_addr",
          "type": "address"
        }
      ],
      "name": "getUserBUSDStaked",
      "outputs": [
        {
          "name": "",
          "type": "uint256"
        }
      ],
      "payable": false,
      "stateMutability": "view",
      "type": "function"
    },
    {
      "constant": true,
      "inputs": [
        {
          "name": "_addr",
          "type": "address"
        }
      ],
      "name": "getUserTokenStaked",
      "outputs": [
        {
          "name": "",
          "type": "uint256"
        }
      ],
      "payable": false,
      "stateMutability": "view",
      "type": "function"
    },
    {
      "constant": true,
      "inputs": [],
      "name": "getTokenPrice",
      "outputs": [
        {
          "name": "value",
          "type": "uint256"
        }
      ],
      "payable": false,
      "stateMutability": "view",
      "type": "function"
    },
    {
      "constant": true,
      "inputs": [
        {
          "name": "BUSDAmount",
          "type": "uint256"
        }
      ],
      "name": "BUSDToToken",
      "outputs": [
        {
          "name": "",
          "type": "uint256"
        }
      ],
      "payable": false,
      "stateMutability": "view",
      "type": "function"
    },
    {
      "constant": true,
      "inputs": [
        {
          "name": "tokenAmount",
          "type": "uint256"
        }
      ],
      "name": "tokenToBUSD",
      "outputs": [
        {
          "name": "",
          "type": "uint256"
        }
      ],
      "payable": false,
      "stateMutability": "view",
      "type": "function"
    },
    {
      "constant": true,
      "inputs": [
        {
          "name": "addr",
          "type": "address"
        }
      ],
      "name": "findStakings",
      "outputs": [
        {
          "components": [
            {
              "name": "id",
              "type": "uint256"
            },
            {
              "name": "addr",
              "type": "address"
            },
            {
              "name": "amount",
              "type": "uint256"
            },
            {
              "name": "period",
              "type": "uint8"
            },
            {
              "name": "startTimeStake",
              "type": "uint256"
            }
          ],
          "name": "",
          "type": "tuple[]"
        }
      ],
      "payable": false,
      "stateMutability": "view",
      "type": "function"
    },
    {
      "constant": true,
      "inputs": [],
      "name": "getContractLaunchTime",
      "outputs": [
        {
          "name": "",
          "type": "uint256"
        }
      ],
      "payable": false,
      "stateMutability": "view",
      "type": "function"
    },
    {
      "constant": true,
      "inputs": [],
      "name": "getCurrentDay",
      "outputs": [
        {
          "name": "",
          "type": "uint256"
        }
      ],
      "payable": false,
      "stateMutability": "view",
      "type": "function"
    },
    {
      "constant": true,
      "inputs": [],
      "name": "getTokenSoldToday",
      "outputs": [
        {
          "name": "",
          "type": "uint256"
        }
      ],
      "payable": false,
      "stateMutability": "view",
      "type": "function"
    },
    {
      "constant": true,
      "inputs": [
        {
          "name": "userAddress",
          "type": "address"
        }
      ],
      "name": "getTokenSoldTodaybyUser",
      "outputs": [
        {
          "name": "",
          "type": "uint256"
        }
      ],
      "payable": false,
      "stateMutability": "view",
      "type": "function"
    },
    {
      "constant": true,
      "inputs": [],
      "name": "getTokenAvailableToSell",
      "outputs": [
        {
          "name": "",
          "type": "uint256"
        }
      ],
      "payable": false,
      "stateMutability": "view",
      "type": "function"
    },
    {
      "constant": true,
      "inputs": [],
      "name": "getTimeToNextDay",
      "outputs": [
        {
          "name": "",
          "type": "uint256"
        }
      ],
      "payable": false,
      "stateMutability": "view",
      "type": "function"
    }
  ],
  "bytecode": "0x608060405273f9675fb5ab89d8d2e825b43e07c518c577e65fb06000806101000a81548173ffffffffffffffffffffffffffffffffffffffff021916908373ffffffffffffffffffffffffffffffffffffffff160217905550610457600a553480156200006b57600080fd5b506040518060400160405280600c81526020017f436f696e20466163746f7279000000000000000000000000000000000000000081525060069080519060200190620000b992919062000593565b506040518060400160405280600381526020017f4346590000000000000000000000000000000000000000000000000000000000815250600790805190602001906200010792919062000593565b506012600860006101000a81548160ff021916908360ff16021790555069152d02c7e14af68000006005819055506000809054906101000a900473ffffffffffffffffffffffffffffffffffffffff16600160006101000a81548173ffffffffffffffffffffffffffffffffffffffff021916908373ffffffffffffffffffffffffffffffffffffffff16021790555033600b60006101000a81548173ffffffffffffffffffffffffffffffffffffffff021916908373ffffffffffffffffffffffffffffffffffffffff16021790555033600c60006101000a81548173ffffffffffffffffffffffffffffffffffffffff021916908373ffffffffffffffffffffffffffffffffffffffff1602179055506200024f3362000243600569021e19e0c9bab24000006200025560201b6200270a1790919060201c565b620002cb60201b60201c565b620008a5565b6000808314156200026a5760009050620002c5565b60008284029050828482816200027c57fe5b0414620002c0576040517f08c379a0000000000000000000000000000000000000000000000000000000008152600401620002b79062000807565b60405180910390fd5b809150505b92915050565b600073ffffffffffffffffffffffffffffffffffffffff168273ffffffffffffffffffffffffffffffffffffffff1614156200033e576040517f08c379a000000000000000000000000000000000000000000000000000000000815260040162000335906200084b565b60405180910390fd5b806200034f620004bd60201b60201c565b101562000393576040517f08c379a00000000000000000000000000000000000000000000000000000000081526004016200038a9062000829565b60405180910390fd5b620003af81600454620004e260201b6200308b1790919060201c565b6004819055506200040e81600260008573ffffffffffffffffffffffffffffffffffffffff1673ffffffffffffffffffffffffffffffffffffffff16815260200190815260200160002054620004e260201b6200308b1790919060201c565b600260008473ffffffffffffffffffffffffffffffffffffffff1673ffffffffffffffffffffffffffffffffffffffff168152602001908152602001600020819055508173ffffffffffffffffffffffffffffffffffffffff16600073ffffffffffffffffffffffffffffffffffffffff167fddf252ad1be2c89b69c2b068fc378daa952ba7f163c4a11628f55a4df523b3ef83604051620004b191906200086d565b60405180910390a35050565b6000620004dd6004546005546200053a60201b620029e11790919060201c565b905090565b60008082840190508381101562000530576040517f08c379a00000000000000000000000000000000000000000000000000000000081526004016200052790620007c3565b60405180910390fd5b8091505092915050565b60008282111562000582576040517f08c379a00000000000000000000000000000000000000000000000000000000081526004016200057990620007e5565b60405180910390fd5b600082840390508091505092915050565b828054600181600116156101000203166002900490600052602060002090601f016020900481019282601f10620005d657805160ff191683800117855562000607565b8280016001018555821562000607579182015b8281111562000606578251825591602001919060010190620005e9565b5b5090506200061691906200061a565b5090565b6200063f91905b808211156200063b57600081600090555060010162000621565b5090565b90565b600062000651601b836200088a565b91507f536166654d6174683a206164646974696f6e206f766572666c6f7700000000006000830152602082019050919050565b600062000693601e836200088a565b91507f536166654d6174683a207375627472616374696f6e206f766572666c6f7700006000830152602082019050919050565b6000620006d56021836200088a565b91507f536166654d6174683a206d756c7469706c69636174696f6e206f766572666c6f60008301527f77000000000000000000000000000000000000000000000000000000000000006020830152604082019050919050565b60006200073d600d836200088a565b91507f537570706c7920657863656564000000000000000000000000000000000000006000830152602082019050919050565b60006200077f601f836200088a565b91507f45524332303a206d696e7420746f20746865207a65726f2061646472657373006000830152602082019050919050565b620007bd816200089b565b82525050565b60006020820190508181036000830152620007de8162000642565b9050919050565b60006020820190508181036000830152620008008162000684565b9050919050565b600060208201905081810360008301526200082281620006c6565b9050919050565b6000602082019050818103600083015262000844816200072e565b9050919050565b60006020820190508181036000830152620008668162000770565b9050919050565b6000602082019050620008846000830184620007b2565b92915050565b600082825260208201905092915050565b6000819050919050565b614daf80620008b56000396000f3fe6080604052600436106102885760003560e01c806370a082311161015a578063b95a049d116100c1578063d1ba643c1161007a578063d1ba643c14610ab7578063d70c55ac14610ace578063dd62ed3e14610b0b578063e325314b14610b48578063f5aec88c14610b5f578063ffab4bd914610b9c57610288565b8063b95a049d14610969578063bff1f9e1146109a6578063c4f0c1fc146109d1578063cae9ca5114610a12578063cd7954ba14610a4f578063cfc85f7014610a8c57610288565b80639956f143116101135780639956f1431461080d5780639cd974791461084a5780639fd3033314610875578063a457c2d7146108b2578063a9059cbb146108ef578063b468f06f1461092c57610288565b806370a08231146106d55780637a1663cc146107125780637d9bc9221461074f5780637ecc2b561461077a5780638af83686146107a557806395d89b41146107e257610288565b8063317d9453116101fe5780634a8b0b10116101b75780634a8b0b10146105d05780634b94f50e1461060d578063547efb5f1461063857806359d85e9714610663578063615043ed1461067f57806369ea9a57146106aa57610288565b8063317d9453146104aa57806336144c9a146104d557806339509351146105125780633ace33891461054f5780633e6968b61461057a578063421a557e146105a557610288565b80632397e4d7116102505780632397e4d71461038657806323b872dd146103af5780632ddcb21f146103ec5780632e559d79146104175780632f79b65514610442578063313ce5671461047f57610288565b806303699c801461028d57806305a222a9146102ca57806306fdde03146102f3578063095ea7b31461031e57806318160ddd1461035b575b600080fd5b34801561029957600080fd5b506102b460048036036102af9190810190613e13565b610bc5565b6040516102c19190614abe565b60405180910390f35b3480156102d657600080fd5b506102f160048036036102ec9190810190613e13565b610c02565b005b3480156102ff57600080fd5b50610308610d6a565b60405161031591906147e4565b60405180910390f35b34801561032a57600080fd5b5061034560048036036103409190810190613cf8565b610e0c565b60405161035291906147c9565b60405180910390f35b34801561036757600080fd5b50610370610e23565b60405161037d9190614abe565b60405180910390f35b34801561039257600080fd5b506103ad60048036036103a89190810190613e13565b610e2d565b005b3480156103bb57600080fd5b506103d660048036036103d19190810190613ca9565b61118e565b6040516103e391906147c9565b60405180910390f35b3480156103f857600080fd5b5061040161123f565b60405161040e9190614abe565b60405180910390f35b34801561042357600080fd5b5061042c611249565b6040516104399190614abe565b60405180910390f35b34801561044e57600080fd5b5061046960048036036104649190810190613e13565b61124f565b6040516104769190614abe565b60405180910390f35b34801561048b57600080fd5b5061049461128c565b6040516104a19190614b2c565b60405180910390f35b3480156104b657600080fd5b506104bf6112a3565b6040516104cc9190614abe565b60405180910390f35b3480156104e157600080fd5b506104fc60048036036104f79190810190613c44565b6112b3565b60405161050991906146b7565b60405180910390f35b34801561051e57600080fd5b5061053960048036036105349190810190613cf8565b61131f565b60405161054691906147c9565b60405180910390f35b34801561055b57600080fd5b506105646113c4565b6040516105719190614abe565b60405180910390f35b34801561058657600080fd5b5061058f6113f4565b60405161059c9190614abe565b60405180910390f35b3480156105b157600080fd5b506105ba61141c565b6040516105c79190614abe565b60405180910390f35b3480156105dc57600080fd5b506105f760048036036105f29190810190613d9b565b611446565b6040516106049190614abe565b60405180910390f35b34801561061957600080fd5b5061062261155f565b60405161062f9190614abe565b60405180910390f35b34801561064457600080fd5b5061064d6115f5565b60405161065a9190614abe565b60405180910390f35b61067d60048036036106789190810190613cf8565b61162a565b005b34801561068b57600080fd5b50610694611a6c565b6040516106a19190614abe565b60405180910390f35b3480156106b657600080fd5b506106bf611b1e565b6040516106cc9190614abe565b60405180910390f35b3480156106e157600080fd5b506106fc60048036036106f79190810190613c44565b611b40565b6040516107099190614abe565b60405180910390f35b34801561071e57600080fd5b5061073960048036036107349190810190613c44565b611b89565b6040516107469190614abe565b60405180910390f35b34801561075b57600080fd5b50610764611baa565b6040516107719190614abe565b60405180910390f35b34801561078657600080fd5b5061078f611bb0565b60405161079c9190614abe565b60405180910390f35b3480156107b157600080fd5b506107cc60048036036107c79190810190613c44565b611bce565b6040516107d99190614abe565b60405180910390f35b3480156107ee57600080fd5b506107f7611c3c565b60405161080491906147e4565b60405180910390f35b34801561081957600080fd5b50610834600480360361082f9190810190613c44565b611cde565b6040516108419190614abe565b60405180910390f35b34801561085657600080fd5b5061085f611d2a565b60405161086c9190614abe565b60405180910390f35b34801561088157600080fd5b5061089c60048036036108979190810190613c44565b611d8b565b6040516108a991906147a7565b60405180910390f35b3480156108be57600080fd5b506108d960048036036108d49190810190613cf8565b611ff1565b6040516108e691906147c9565b60405180910390f35b3480156108fb57600080fd5b5061091660048036036109119190810190613cf8565b612096565b60405161092391906147c9565b60405180910390f35b34801561093857600080fd5b50610953600480360361094e9190810190613c44565b612145565b6040516109609190614abe565b60405180910390f35b34801561097557600080fd5b50610990600480360361098b9190810190613c44565b612194565b60405161099d9190614abe565b60405180910390f35b3480156109b257600080fd5b506109bb6121e3565b6040516109c89190614abe565b60405180910390f35b3480156109dd57600080fd5b506109f860048036036109f39190810190613e13565b6121e9565b604051610a09959493929190614ad9565b60405180910390f35b348015610a1e57600080fd5b50610a396004803603610a349190810190613d34565b612259565b604051610a4691906147c9565b60405180910390f35b348015610a5b57600080fd5b50610a766004803603610a719190810190613c44565b6122ea565b604051610a839190614abe565b60405180910390f35b348015610a9857600080fd5b50610aa16122f1565b604051610aae9190614abe565b60405180910390f35b348015610ac357600080fd5b50610acc612304565b005b348015610ada57600080fd5b50610af56004803603610af09190810190613c44565b6123c8565b604051610b029190614abe565b60405180910390f35b348015610b1757600080fd5b50610b326004803603610b2d9190810190613c6d565b612436565b604051610b3f9190614abe565b60405180910390f35b348015610b5457600080fd5b50610b5d6124bd565b005b348015610b6b57600080fd5b50610b866004803603610b819190810190613c44565b612581565b604051610b939190614abe565b60405180910390f35b348015610ba857600080fd5b50610bc36004803603610bbe9190810190613e65565b612593565b005b6000610bfb610bd261155f565b610bed670de0b6b3a76400008561270a90919063ffffffff16565b61277a90919063ffffffff16565b9050919050565b6000601060003373ffffffffffffffffffffffffffffffffffffffff1673ffffffffffffffffffffffffffffffffffffffff1681526020019081526020016000209050610c4e336127d6565b610c5782612866565b610c96576040517f08c379a0000000000000000000000000000000000000000000000000000000008152600401610c8d90614a3e565b60405180910390fd5b600060128381548110610ca557fe5b906000526020600020906005020160020154905060128381548110610cc657fe5b90600052602060002090600502016000808201600090556001820160006101000a81549073ffffffffffffffffffffffffffffffffffffffff021916905560028201600090556003820160006101000a81549060ff021916905560048201600090555050808260060160010154038260060160010181905550610d5481600f546129e190919063ffffffff16565b600f81905550610d65303383612a37565b505050565b606060068054600181600116156101000203166002900480601f016020809104026020016040519081016040528092919081815260200182805460018160011615610100020316600290048015610e025780601f10610dd757610100808354040283529160200191610e02565b820191906000526020600020905b815481529060010190602001808311610de557829003601f168201915b5050505050905090565b6000610e19338484612cab565b6001905092915050565b6000600454905090565b6000819050610e4482610e3f33611b40565b612e76565b915060008211610e89576040517f08c379a0000000000000000000000000000000000000000000000000000000008152600401610e8090614826565b60405180910390fd5b610e933383612e92565b610ed2576040517f08c379a0000000000000000000000000000000000000000000000000000000008152600401610ec990614902565b60405180910390fd5b690cb49b44ba602d800000610f0a8360116000610eed6113f4565b81526020019081526020016000205461308b90919063ffffffff16565b1115610f4b576040517f08c379a0000000000000000000000000000000000000000000000000000000008152600401610f42906149c2565b60405180910390fd5b610f788260116000610f5b6113f4565b81526020019081526020016000205461308b90919063ffffffff16565b60116000610f846113f4565b8152602001908152602001600020819055506000610fa18361124f565b905080610fac611a6c565b11610fec576040517f08c379a0000000000000000000000000000000000000000000000000000000008152600401610fe390614942565b60405180910390fd5b6000601060003373ffffffffffffffffffffffffffffffffffffffff1673ffffffffffffffffffffffffffffffffffffffff168152602001908152602001600020600e0154141561107f5742601060003373ffffffffffffffffffffffffffffffffffffffff1673ffffffffffffffffffffffffffffffffffffffff168152602001908152602001600020600e01819055505b61108933846130e0565b600160009054906101000a900473ffffffffffffffffffffffffffffffffffffffff1673ffffffffffffffffffffffffffffffffffffffff1663a9059cbb33836040518363ffffffff1660e01b81526004016110e6929190614709565b602060405180830381600087803b15801561110057600080fd5b505af1158015611114573d6000803e3d6000fd5b505050506040513d601f19601f820116820180604052506111389190810190613dea565b503373ffffffffffffffffffffffffffffffffffffffff167fe5d010647fdec31d4cc123be78ffaefe38987ce65e775c1e729e35c9f0cf9eae8483604051611181929190614886565b60405180910390a2505050565b600061119b848484612a37565b611234843361122f85600360008a73ffffffffffffffffffffffffffffffffffffffff1673ffffffffffffffffffffffffffffffffffffffff16815260200190815260200160002060003373ffffffffffffffffffffffffffffffffffffffff1673ffffffffffffffffffffffffffffffffffffffff168152602001908152602001600020546129e190919063ffffffff16565b612cab565b600190509392505050565b6000600554905090565b600f5481565b6000611285670de0b6b3a764000061127761126861155f565b8561270a90919063ffffffff16565b61277a90919063ffffffff16565b9050919050565b6000600860009054906101000a900460ff16905090565b60006112ae30611b40565b905090565b6000601060008373ffffffffffffffffffffffffffffffffffffffff1673ffffffffffffffffffffffffffffffffffffffff16815260200190815260200160002060000160009054906101000a900473ffffffffffffffffffffffffffffffffffffffff169050919050565b60006113ba33846113b585600360003373ffffffffffffffffffffffffffffffffffffffff1673ffffffffffffffffffffffffffffffffffffffff16815260200190815260200160002060008973ffffffffffffffffffffffffffffffffffffffff1673ffffffffffffffffffffffffffffffffffffffff1681526020019081526020016000205461308b90919063ffffffff16565b612cab565b6001905092915050565b60006113ef600a6113e161016d601461270a90919063ffffffff16565b61277a90919063ffffffff16565b905090565b60006114176201518061140942600a5461326a565b61277a90919063ffffffff16565b905090565b600061144161142a33612145565b61143333612581565b61308b90919063ffffffff16565b905090565b60008373ffffffffffffffffffffffffffffffffffffffff166012848154811061146c57fe5b906000526020600020906005020160010160009054906101000a900473ffffffffffffffffffffffffffffffffffffffff1673ffffffffffffffffffffffffffffffffffffffff1614156115555760004290506000601285815481106114ce57fe5b90600052602060002090600502016004015490506115506103e8611542620151806115348861152687890360128d8154811061150657fe5b90600052602060002090600502016002015461270a90919063ffffffff16565b61270a90919063ffffffff16565b61277a90919063ffffffff16565b61277a90919063ffffffff16565b925050505b8090509392505050565b600080611584670de0b6b3a7640000611576611a6c565b61270a90919063ffffffff16565b905060006115a36001611595611bb0565b61308b90919063ffffffff16565b9050670de0b6b3a76400006115c1828461277a90919063ffffffff16565b11156115d757670de0b6b3a764000092506115ed565b6115ea818361277a90919063ffffffff16565b92505b829250505090565b6000611625690cb49b44ba602d800000601160006116116113f4565b81526020019081526020016000205461326a565b905090565b6361bddb50421161163a57600080fd5b600160009054906101000a900473ffffffffffffffffffffffffffffffffffffffff1673ffffffffffffffffffffffffffffffffffffffff166323b872dd3330846040518463ffffffff1660e01b8152600401611699939291906146d2565b602060405180830381600087803b1580156116b357600080fd5b505af11580156116c7573d6000803e3d6000fd5b505050506040513d601f19601f820116820180604052506116eb9190810190613dea565b5060006117166103e8611708600f8561270a90919063ffffffff16565b61277a90919063ffffffff16565b9050600160009054906101000a900473ffffffffffffffffffffffffffffffffffffffff1673ffffffffffffffffffffffffffffffffffffffff1663a9059cbb600c60009054906101000a900473ffffffffffffffffffffffffffffffffffffffff16836040518363ffffffff1660e01b8152600401611797929190614709565b602060405180830381600087803b1580156117b157600080fd5b505af11580156117c5573d6000803e3d6000fd5b505050506040513d601f19601f820116820180604052506117e99190810190613dea565b506000601060003373ffffffffffffffffffffffffffffffffffffffff1673ffffffffffffffffffffffffffffffffffffffff1681526020019081526020016000209050600b60009054906101000a900473ffffffffffffffffffffffffffffffffffffffff1673ffffffffffffffffffffffffffffffffffffffff163373ffffffffffffffffffffffffffffffffffffffff16141580156118d95750600b60009054906101000a900473ffffffffffffffffffffffffffffffffffffffff1673ffffffffffffffffffffffffffffffffffffffff168473ffffffffffffffffffffffffffffffffffffffff1614155b156119d257838160000160006101000a81548173ffffffffffffffffffffffffffffffffffffffff021916908373ffffffffffffffffffffffffffffffffffffffff160217905550600160009054906101000a900473ffffffffffffffffffffffffffffffffffffffff1673ffffffffffffffffffffffffffffffffffffffff1663a9059cbb85846040518363ffffffff1660e01b815260040161197e92919061477e565b602060405180830381600087803b15801561199857600080fd5b505af11580156119ac573d6000803e3d6000fd5b505050506040513d601f19601f820116820180604052506119d09190810190613dea565b505b600081600201600101541415611a10576119ee42600a54613289565b8160020160000181905550600d60008154809291906001019190505550611a1a565b611a19336132a5565b5b428160020160020181905550611a4083826002016001015461308b90919063ffffffff16565b8160020160010181905550611a6083600e5461308b90919063ffffffff16565b600e8190555050505050565b6000600160009054906101000a900473ffffffffffffffffffffffffffffffffffffffff1673ffffffffffffffffffffffffffffffffffffffff166370a08231306040518263ffffffff1660e01b8152600401611ac991906146b7565b60206040518083038186803b158015611ae157600080fd5b505afa158015611af5573d6000803e3d6000fd5b505050506040513d601f19601f82011682018060405250611b199190810190613e3c565b905090565b600060116000611b2c6113f4565b815260200190815260200160002054905090565b6000600260008373ffffffffffffffffffffffffffffffffffffffff1673ffffffffffffffffffffffffffffffffffffffff168152602001908152602001600020549050919050565b60008173ffffffffffffffffffffffffffffffffffffffff16319050919050565b600e5481565b6000611bc96004546005546129e190919063ffffffff16565b905090565b600080601060008473ffffffffffffffffffffffffffffffffffffffff1673ffffffffffffffffffffffffffffffffffffffff1681526020019081526020016000209050611c348160020160030154611c2685613335565b61308b90919063ffffffff16565b915050919050565b606060078054600181600116156101000203166002900480601f016020809104026020016040519081016040528092919081815260200182805460018160011615610100020316600290048015611cd45780601f10611ca957610100808354040283529160200191611cd4565b820191906000526020600020905b815481529060010190602001808311611cb757829003601f168201915b5050505050905090565b6000601060008373ffffffffffffffffffffffffffffffffffffffff1673ffffffffffffffffffffffffffffffffffffffff168152602001908152602001600020600d01549050919050565b600080611d3942600a5461326a565b90506000611d5a62015180611d4c6113f4565b61270a90919063ffffffff16565b9050611d8482611d76620151808461308b90919063ffffffff16565b6129e190919063ffffffff16565b9250505090565b6060600080600090505b601280549050811015611e2a578373ffffffffffffffffffffffffffffffffffffffff1660128281548110611dc657fe5b906000526020600020906005020160010160009054906101000a900473ffffffffffffffffffffffffffffffffffffffff1673ffffffffffffffffffffffffffffffffffffffff161415611e1d5781806001019250505b8080600101915050611d95565b50606081604051908082528060200260200182016040528015611e6757816020015b611e54613afc565b815260200190600190039081611e4c5790505b509050600080600090505b601280549050811015611fe5578573ffffffffffffffffffffffffffffffffffffffff1660128281548110611ea357fe5b906000526020600020906005020160010160009054906101000a900473ffffffffffffffffffffffffffffffffffffffff1673ffffffffffffffffffffffffffffffffffffffff161415611fd85760128181548110611efe57fe5b90600052602060002090600502016040518060a0016040529081600082015481526020016001820160009054906101000a900473ffffffffffffffffffffffffffffffffffffffff1673ffffffffffffffffffffffffffffffffffffffff1673ffffffffffffffffffffffffffffffffffffffff168152602001600282015481526020016003820160009054906101000a900460ff166002811115611f9f57fe5b6002811115611faa57fe5b8152602001600482015481525050838381518110611fc457fe5b602002602001018190525081806001019250505b8080600101915050611e72565b50819350505050919050565b600061208c338461208785600360003373ffffffffffffffffffffffffffffffffffffffff1673ffffffffffffffffffffffffffffffffffffffff16815260200190815260200160002060008973ffffffffffffffffffffffffffffffffffffffff1673ffffffffffffffffffffffffffffffffffffffff168152602001908152602001600020546129e190919063ffffffff16565b612cab565b6001905092915050565b6000600960008473ffffffffffffffffffffffffffffffffffffffff1673ffffffffffffffffffffffffffffffffffffffff16815260200190815260200160002060009054906101000a900460ff161561212f57612129838360006040519080825280601f01601f1916602001820160405280156121235781602001600182028038833980820191505090505b50612259565b5061213b565b6121398383613415565b505b6001905092915050565b6000601060008373ffffffffffffffffffffffffffffffffffffffff1673ffffffffffffffffffffffffffffffffffffffff168152602001908152602001600020600601600101549050919050565b6000601060008373ffffffffffffffffffffffffffffffffffffffff1673ffffffffffffffffffffffffffffffffffffffff168152602001908152602001600020600201600101549050919050565b600d5481565b601281815481106121f657fe5b90600052602060002090600502016000915090508060000154908060010160009054906101000a900473ffffffffffffffffffffffffffffffffffffffff16908060020154908060030160009054906101000a900460ff16908060040154905085565b60006122658484610e0c565b61226e57600080fd5b8373ffffffffffffffffffffffffffffffffffffffff16638f4ffcb1338530866040518563ffffffff1660e01b81526004016122ad9493929190614732565b600060405180830381600087803b1580156122c757600080fd5b505af11580156122db573d6000803e3d6000fd5b50505050600190509392505050565b6000919050565b60006122ff600a544261326a565b905090565b6000601060003373ffffffffffffffffffffffffffffffffffffffff1673ffffffffffffffffffffffffffffffffffffffff1681526020019081526020016000209050612350336132a5565b60008160020160030154905060008260020160030181905550612373338261342c565b3373ffffffffffffffffffffffffffffffffffffffff167fe5d010647fdec31d4cc123be78ffaefe38987ce65e775c1e729e35c9f0cf9eae8260006040516123bc9291906149e2565b60405180910390a25050565b600080601060008473ffffffffffffffffffffffffffffffffffffffff1673ffffffffffffffffffffffffffffffffffffffff168152602001908152602001600020905061242e816006016003015461242085613600565b61308b90919063ffffffff16565b915050919050565b6000600360008473ffffffffffffffffffffffffffffffffffffffff1673ffffffffffffffffffffffffffffffffffffffff16815260200190815260200160002060008373ffffffffffffffffffffffffffffffffffffffff1673ffffffffffffffffffffffffffffffffffffffff16815260200190815260200160002054905092915050565b6000601060003373ffffffffffffffffffffffffffffffffffffffff1673ffffffffffffffffffffffffffffffffffffffff1681526020019081526020016000209050612509336127d6565b6000816006016003015490506000826006016003018190555061252c338261342c565b3373ffffffffffffffffffffffffffffffffffffffff167fe5d010647fdec31d4cc123be78ffaefe38987ce65e775c1e729e35c9f0cf9eae8260006040516125759291906149e2565b60405180910390a25050565b600061258c82611b40565b9050919050565b6000601060003373ffffffffffffffffffffffffffffffffffffffff1673ffffffffffffffffffffffffffffffffffffffff1681526020019081526020016000209050600a5442101561261b576040517f08c379a000000000000000000000000000000000000000000000000000000000815260040161261290614a5e565b60405180910390fd5b61262433611b40565b831115612666576040517f08c379a000000000000000000000000000000000000000000000000000000000815260040161265d90614a9e565b60405180910390fd5b60008160060160010154141561268757428160060160000181905550612691565b612690336127d6565b5b61269c333085612a37565b4281600601600201819055506126c283826006016001015461308b90919063ffffffff16565b81600601600101819055506126e283600f5461308b90919063ffffffff16565b600f8190555060006126f261398c565b905061270460018201338686426139aa565b50505050565b60008083141561271d5760009050612774565b600082840290508284828161272e57fe5b041461276f576040517f08c379a000000000000000000000000000000000000000000000000000000000815260040161276690614922565b60405180910390fd5b809150505b92915050565b60008082116127be576040517f08c379a00000000000000000000000000000000000000000000000000000000081526004016127b5906148e2565b60405180910390fd5b60008284816127c957fe5b0490508091505092915050565b6000601060008373ffffffffffffffffffffffffffffffffffffffff1673ffffffffffffffffffffffffffffffffffffffff1681526020019081526020016000209050600061282483613600565b905060008111156128615761284981836006016003015461308b90919063ffffffff16565b82600601600301819055504282600601600001819055505b505050565b600080600281111561287457fe5b6012838154811061288157fe5b906000526020600020906005020160030160009054906101000a900460ff1660028111156128ab57fe5b14156128ba57600190506129d9565b600160028111156128c757fe5b601283815481106128d457fe5b906000526020600020906005020160030160009054906101000a900460ff1660028111156128fe57fe5b14801561293d57504261293b620151806012858154811061291b57fe5b90600052602060002090600502016004015461308b90919063ffffffff16565b105b1561294b57600090506129d8565b60028081111561295757fe5b6012838154811061296457fe5b906000526020600020906005020160030160009054906101000a900460ff16600281111561298e57fe5b1480156129cd5750426129cb6202a300601285815481106129ab57fe5b90600052602060002090600502016004015461308b90919063ffffffff16565b105b156129d757600090505b5b5b809050919050565b600082821115612a26576040517f08c379a0000000000000000000000000000000000000000000000000000000008152600401612a1d906148c2565b60405180910390fd5b600082840390508091505092915050565b600073ffffffffffffffffffffffffffffffffffffffff168373ffffffffffffffffffffffffffffffffffffffff161415612aa7576040517f08c379a0000000000000000000000000000000000000000000000000000000008152600401612a9e90614982565b60405180910390fd5b600073ffffffffffffffffffffffffffffffffffffffff168273ffffffffffffffffffffffffffffffffffffffff161415612b17576040517f08c379a0000000000000000000000000000000000000000000000000000000008152600401612b0e90614806565b60405180910390fd5b612b6981600260008673ffffffffffffffffffffffffffffffffffffffff1673ffffffffffffffffffffffffffffffffffffffff168152602001908152602001600020546129e190919063ffffffff16565b600260008573ffffffffffffffffffffffffffffffffffffffff1673ffffffffffffffffffffffffffffffffffffffff16815260200190815260200160002081905550612bfe81600260008573ffffffffffffffffffffffffffffffffffffffff1673ffffffffffffffffffffffffffffffffffffffff1681526020019081526020016000205461308b90919063ffffffff16565b600260008473ffffffffffffffffffffffffffffffffffffffff1673ffffffffffffffffffffffffffffffffffffffff168152602001908152602001600020819055508173ffffffffffffffffffffffffffffffffffffffff168373ffffffffffffffffffffffffffffffffffffffff167fddf252ad1be2c89b69c2b068fc378daa952ba7f163c4a11628f55a4df523b3ef83604051612c9e9190614abe565b60405180910390a3505050565b600073ffffffffffffffffffffffffffffffffffffffff168373ffffffffffffffffffffffffffffffffffffffff161415612d1b576040517f08c379a0000000000000000000000000000000000000000000000000000000008152600401612d12906149a2565b60405180910390fd5b600073ffffffffffffffffffffffffffffffffffffffff168273ffffffffffffffffffffffffffffffffffffffff161415612d8b576040517f08c379a0000000000000000000000000000000000000000000000000000000008152600401612d8290614846565b60405180910390fd5b80600360008573ffffffffffffffffffffffffffffffffffffffff1673ffffffffffffffffffffffffffffffffffffffff16815260200190815260200160002060008473ffffffffffffffffffffffffffffffffffffffff1673ffffffffffffffffffffffffffffffffffffffff168152602001908152602001600020819055508173ffffffffffffffffffffffffffffffffffffffff168373ffffffffffffffffffffffffffffffffffffffff167f8c5be1e5ebec7d5bd14f71427d1e84f3dd0314c0f7b2291e5b200ac8c7c3b92583604051612e699190614abe565b60405180910390a3505050565b600081831115612e8857819050612e8c565b8290505b92915050565b60008082601060008673ffffffffffffffffffffffffffffffffffffffff1673ffffffffffffffffffffffffffffffffffffffff168152602001908152602001600020600d015401905069021e19e0c9bab24000008111612f825782601060003373ffffffffffffffffffffffffffffffffffffffff1673ffffffffffffffffffffffffffffffffffffffff168152602001908152602001600020600d015401601060003373ffffffffffffffffffffffffffffffffffffffff1673ffffffffffffffffffffffffffffffffffffffff168152602001908152602001600020600d01819055506001915050613085565b61012c601060008673ffffffffffffffffffffffffffffffffffffffff1673ffffffffffffffffffffffffffffffffffffffff168152602001908152602001600020600e0154014210158015612fe2575069021e19e0c9bab24000008111155b1561307f5782601060008673ffffffffffffffffffffffffffffffffffffffff1673ffffffffffffffffffffffffffffffffffffffff168152602001908152602001600020600d018190555042601060008673ffffffffffffffffffffffffffffffffffffffff1673ffffffffffffffffffffffffffffffffffffffff168152602001908152602001600020600e01819055506001915050613085565b60009150505b92915050565b6000808284019050838110156130d6576040517f08c379a00000000000000000000000000000000000000000000000000000000081526004016130cd90614866565b60405180910390fd5b8091505092915050565b600073ffffffffffffffffffffffffffffffffffffffff168273ffffffffffffffffffffffffffffffffffffffff161415613150576040517f08c379a000000000000000000000000000000000000000000000000000000000815260040161314790614962565b60405180910390fd5b6131a281600260008573ffffffffffffffffffffffffffffffffffffffff1673ffffffffffffffffffffffffffffffffffffffff168152602001908152602001600020546129e190919063ffffffff16565b600260008473ffffffffffffffffffffffffffffffffffffffff1673ffffffffffffffffffffffffffffffffffffffff168152602001908152602001600020819055506131fa816004546129e190919063ffffffff16565b600481905550600073ffffffffffffffffffffffffffffffffffffffff168273ffffffffffffffffffffffffffffffffffffffff167fddf252ad1be2c89b69c2b068fc378daa952ba7f163c4a11628f55a4df523b3ef8360405161325e9190614abe565b60405180910390a35050565b60008183111561327e578183039050613283565b600090505b92915050565b60008183111561329b5782905061329f565b8190505b92915050565b6000601060008373ffffffffffffffffffffffffffffffffffffffff1673ffffffffffffffffffffffffffffffffffffffff168152602001908152602001600020905060006132f383613335565b905060008111156133305761331881836002016003015461308b90919063ffffffff16565b82600201600301819055504282600201600001819055505b505050565b600080601060008473ffffffffffffffffffffffffffffffffffffffff1673ffffffffffffffffffffffffffffffffffffffff168152602001908152602001600020905060008160020160000154905042600a541115613393574290505b600060149050600042905080831015613404576133fd6103e86133ef620151806133e1866133d38988038b6002016001015461270a90919063ffffffff16565b61270a90919063ffffffff16565b61277a90919063ffffffff16565b61277a90919063ffffffff16565b9450613409565b600094505b84945050505050919050565b6000613422338484612a37565b6001905092915050565b600073ffffffffffffffffffffffffffffffffffffffff168273ffffffffffffffffffffffffffffffffffffffff16141561349c576040517f08c379a000000000000000000000000000000000000000000000000000000000815260040161349390614a7e565b60405180910390fd5b806134a5611bb0565b10156134e6576040517f08c379a00000000000000000000000000000000000000000000000000000000081526004016134dd90614a1e565b60405180910390fd5b6134fb8160045461308b90919063ffffffff16565b60048190555061355381600260008573ffffffffffffffffffffffffffffffffffffffff1673ffffffffffffffffffffffffffffffffffffffff1681526020019081526020016000205461308b90919063ffffffff16565b600260008473ffffffffffffffffffffffffffffffffffffffff1673ffffffffffffffffffffffffffffffffffffffff168152602001908152602001600020819055508173ffffffffffffffffffffffffffffffffffffffff16600073ffffffffffffffffffffffffffffffffffffffff167fddf252ad1be2c89b69c2b068fc378daa952ba7f163c4a11628f55a4df523b3ef836040516135f49190614abe565b60405180910390a35050565b600080601060008473ffffffffffffffffffffffffffffffffffffffff1673ffffffffffffffffffffffffffffffffffffffff168152602001908152602001600020905060008160060160000154905042600a54111561365e574290505b600061366861398c565b9050600042905060008184101561397a5760008090505b8381101561395d578773ffffffffffffffffffffffffffffffffffffffff16601282815481106136ab57fe5b906000526020600020906005020160010160009054906101000a900473ffffffffffffffffffffffffffffffffffffffff1673ffffffffffffffffffffffffffffffffffffffff1614801561373a575061370433612194565b61371f600261371161141c565b61270a90919063ffffffff16565b10806137395750670de0b6b3a764000061373761155f565b105b5b15613950576000600281111561374c57fe5b6012828154811061375957fe5b906000526020600020906005020160030160009054906101000a900460ff16600281111561378357fe5b14156137f0576137e4620151806137d6601e6137c8898803601287815481106137a857fe5b90600052602060002090600502016002015461270a90919063ffffffff16565b61270a90919063ffffffff16565b61277a90919063ffffffff16565b9150818701965061394f565b600160028111156137fd57fe5b6012828154811061380a57fe5b906000526020600020906005020160030160009054906101000a900460ff16600281111561383457fe5b14156138a1576138956201518061388760286138798988036012878154811061385957fe5b90600052602060002090600502016002015461270a90919063ffffffff16565b61270a90919063ffffffff16565b61277a90919063ffffffff16565b9150818701965061394e565b6002808111156138ad57fe5b601282815481106138ba57fe5b906000526020600020906005020160030160009054906101000a900460ff1660028111156138e457fe5b141561394d576139456201518061393760326139298988036012878154811061390957fe5b90600052602060002090600502016002015461270a90919063ffffffff16565b61270a90919063ffffffff16565b61277a90919063ffffffff16565b915081870196505b5b5b5b808060010191505061367f565b506139736103e88761277a90919063ffffffff16565b955061397f565b600095505b8595505050505050919050565b6000601280549050905060008110156139a457600090505b80905090565b6139b2613b4c565b8581600001818152505084816020019073ffffffffffffffffffffffffffffffffffffffff16908173ffffffffffffffffffffffffffffffffffffffff168152505083816040018181525050826002811115613a0a57fe5b81606001906002811115613a1a57fe5b90816002811115613a2757fe5b8152505081816080018181525050601281908060018154018082558091505090600182039060005260206000209060050201600090919290919091506000820151816000015560208201518160010160006101000a81548173ffffffffffffffffffffffffffffffffffffffff021916908373ffffffffffffffffffffffffffffffffffffffff1602179055506040820151816002015560608201518160030160006101000a81548160ff02191690836002811115613ae257fe5b021790555060808201518160040155505050505050505050565b6040518060a0016040528060008152602001600073ffffffffffffffffffffffffffffffffffffffff1681526020016000815260200160006002811115613b3f57fe5b8152602001600081525090565b6040518060a0016040528060008152602001600073ffffffffffffffffffffffffffffffffffffffff1681526020016000815260200160006002811115613b8f57fe5b8152602001600081525090565b600081359050613bab81614d30565b92915050565b600081519050613bc081614d47565b92915050565b600082601f830112613bd757600080fd5b8135613bea613be582614b74565b614b47565b91508082526020830160208301858383011115613c0657600080fd5b613c11838284614cd0565b50505092915050565b600081359050613c2981614d5e565b92915050565b600081519050613c3e81614d5e565b92915050565b600060208284031215613c5657600080fd5b6000613c6484828501613b9c565b91505092915050565b60008060408385031215613c8057600080fd5b6000613c8e85828601613b9c565b9250506020613c9f85828601613b9c565b9150509250929050565b600080600060608486031215613cbe57600080fd5b6000613ccc86828701613b9c565b9350506020613cdd86828701613b9c565b9250506040613cee86828701613c1a565b9150509250925092565b60008060408385031215613d0b57600080fd5b6000613d1985828601613b9c565b9250506020613d2a85828601613c1a565b9150509250929050565b600080600060608486031215613d4957600080fd5b6000613d5786828701613b9c565b9350506020613d6886828701613c1a565b925050604084013567ffffffffffffffff811115613d8557600080fd5b613d9186828701613bc6565b9150509250925092565b600080600060608486031215613db057600080fd5b6000613dbe86828701613b9c565b9350506020613dcf86828701613c1a565b9250506040613de086828701613c1a565b9150509250925092565b600060208284031215613dfc57600080fd5b6000613e0a84828501613bb1565b91505092915050565b600060208284031215613e2557600080fd5b6000613e3384828501613c1a565b91505092915050565b600060208284031215613e4e57600080fd5b6000613e5c84828501613c2f565b91505092915050565b60008060408385031215613e7857600080fd5b6000613e8685828601613c1a565b9250506020613e9785828601613c1a565b9150509250929050565b6000613ead8383614622565b60a08301905092915050565b613ec281614c76565b82525050565b613ed181614c0e565b82525050565b613ee081614c0e565b82525050565b6000613ef182614bad565b613efb8185614bdb565b9350613f0683614ba0565b8060005b83811015613f37578151613f1e8882613ea1565b9750613f2983614bce565b925050600181019050613f0a565b5085935050505092915050565b613f4d81614c20565b82525050565b6000613f5e82614bb8565b613f688185614bec565b9350613f78818560208601614cdf565b613f8181614d12565b840191505092915050565b613f9581614c88565b82525050565b613fa481614c88565b82525050565b613fb381614c9a565b82525050565b6000613fc482614bc3565b613fce8185614bfd565b9350613fde818560208601614cdf565b613fe781614d12565b840191505092915050565b6000613fff602383614bfd565b91507f45524332303a207472616e7366657220746f20746865207a65726f206164647260008301527f65737300000000000000000000000000000000000000000000000000000000006020830152604082019050919050565b6000614065601983614bfd565b91507f546f6b656e20616d6f756e742063616e206e6f742062652030000000000000006000830152602082019050919050565b60006140a5602283614bfd565b91507f45524332303a20617070726f766520746f20746865207a65726f20616464726560008301527f73730000000000000000000000000000000000000000000000000000000000006020830152604082019050919050565b600061410b601b83614bfd565b91507f536166654d6174683a206164646974696f6e206f766572666c6f7700000000006000830152602082019050919050565b600061414b600483614bfd565b91507f53454c4c000000000000000000000000000000000000000000000000000000006000830152602082019050919050565b600061418b601e83614bfd565b91507f536166654d6174683a207375627472616374696f6e206f766572666c6f7700006000830152602082019050919050565b60006141cb601a83614bfd565b91507f536166654d6174683a206469766973696f6e206279207a65726f0000000000006000830152602082019050919050565b600061420b603183614bfd565b91507f4461696c792053656c6c204c696d6974206578636565642e204d61782031302e60008301527f30303020746f6b656e73206461696c792e0000000000000000000000000000006020830152604082019050919050565b6000614271602183614bfd565b91507f536166654d6174683a206d756c7469706c69636174696f6e206f766572666c6f60008301527f77000000000000000000000000000000000000000000000000000000000000006020830152604082019050919050565b60006142d7601d83614bfd565b91507f496e73756666696369656e7420436f6e74726163742042616c616e63650000006000830152602082019050919050565b6000614317602183614bfd565b91507f45524332303a206275726e2066726f6d20746865207a65726f2061646472657360008301527f73000000000000000000000000000000000000000000000000000000000000006020830152604082019050919050565b600061437d602583614bfd565b91507f45524332303a207472616e736665722066726f6d20746865207a65726f20616460008301527f64726573730000000000000000000000000000000000000000000000000000006020830152604082019050919050565b60006143e3602483614bfd565b91507f45524332303a20617070726f76652066726f6d20746865207a65726f2061646460008301527f72657373000000000000000000000000000000000000000000000000000000006020830152604082019050919050565b6000614449601783614bfd565b91507f4461696c792053656c6c204c696d6974206578636565640000000000000000006000830152602082019050919050565b6000614489600583614bfd565b91507f434c41494d0000000000000000000000000000000000000000000000000000006000830152602082019050919050565b60006144c9600d83614bfd565b91507f537570706c7920657863656564000000000000000000000000000000000000006000830152602082019050919050565b6000614509602283614bfd565b91507f596f752063616e6e6f7420756e7374616b6520796f757220746f6b656e73207960008301527f65740000000000000000000000000000000000000000000000000000000000006020830152604082019050919050565b600061456f601783614bfd565b91507f5374616b65206e6f7420617661696c61626c65207965740000000000000000006000830152602082019050919050565b60006145af601f83614bfd565b91507f45524332303a206d696e7420746f20746865207a65726f2061646472657373006000830152602082019050919050565b60006145ef601a83614bfd565b91507f496e73756666696369656e7420546f6b656e2042616c616e63650000000000006000830152602082019050919050565b60a082016000820151614638600085018261468a565b50602082015161464b6020850182613ec8565b50604082015161465e604085018261468a565b5060608201516146716060850182613f8c565b506080820151614684608085018261468a565b50505050565b61469381614c5f565b82525050565b6146a281614c5f565b82525050565b6146b181614c69565b82525050565b60006020820190506146cc6000830184613ed7565b92915050565b60006060820190506146e76000830186613eb9565b6146f46020830185613ed7565b6147016040830184614699565b949350505050565b600060408201905061471e6000830185613eb9565b61472b6020830184614699565b9392505050565b60006080820190506147476000830187613eb9565b6147546020830186614699565b6147616040830185613ed7565b81810360608301526147738184613f53565b905095945050505050565b60006040820190506147936000830185613ed7565b6147a06020830184614699565b9392505050565b600060208201905081810360008301526147c18184613ee6565b905092915050565b60006020820190506147de6000830184613f44565b92915050565b600060208201905081810360008301526147fe8184613fb9565b905092915050565b6000602082019050818103600083015261481f81613ff2565b9050919050565b6000602082019050818103600083015261483f81614058565b9050919050565b6000602082019050818103600083015261485f81614098565b9050919050565b6000602082019050818103600083015261487f816140fe565b9050919050565b6000606082019050818103600083015261489f8161413e565b90506148ae6020830185614699565b6148bb6040830184614699565b9392505050565b600060208201905081810360008301526148db8161417e565b9050919050565b600060208201905081810360008301526148fb816141be565b9050919050565b6000602082019050818103600083015261491b816141fe565b9050919050565b6000602082019050818103600083015261493b81614264565b9050919050565b6000602082019050818103600083015261495b816142ca565b9050919050565b6000602082019050818103600083015261497b8161430a565b9050919050565b6000602082019050818103600083015261499b81614370565b9050919050565b600060208201905081810360008301526149bb816143d6565b9050919050565b600060208201905081810360008301526149db8161443c565b9050919050565b600060608201905081810360008301526149fb8161447c565b9050614a0a6020830185614699565b614a176040830184613faa565b9392505050565b60006020820190508181036000830152614a37816144bc565b9050919050565b60006020820190508181036000830152614a57816144fc565b9050919050565b60006020820190508181036000830152614a7781614562565b9050919050565b60006020820190508181036000830152614a97816145a2565b9050919050565b60006020820190508181036000830152614ab7816145e2565b9050919050565b6000602082019050614ad36000830184614699565b92915050565b600060a082019050614aee6000830188614699565b614afb6020830187613ed7565b614b086040830186614699565b614b156060830185613f9b565b614b226080830184614699565b9695505050505050565b6000602082019050614b4160008301846146a8565b92915050565b6000604051905081810181811067ffffffffffffffff82111715614b6a57600080fd5b8060405250919050565b600067ffffffffffffffff821115614b8b57600080fd5b601f19601f8301169050602081019050919050565b6000602082019050919050565b600081519050919050565b600081519050919050565b600081519050919050565b6000602082019050919050565b600082825260208201905092915050565b600082825260208201905092915050565b600082825260208201905092915050565b6000614c1982614c3f565b9050919050565b60008115159050919050565b6000819050614c3a82614d23565b919050565b600073ffffffffffffffffffffffffffffffffffffffff82169050919050565b6000819050919050565b600060ff82169050919050565b6000614c8182614cac565b9050919050565b6000614c9382614c2c565b9050919050565b6000614ca582614c5f565b9050919050565b6000614cb782614cbe565b9050919050565b6000614cc982614c3f565b9050919050565b82818337600083830152505050565b60005b83811015614cfd578082015181840152602081019050614ce2565b83811115614d0c576000848401525b50505050565b6000601f19601f8301169050919050565b60038110614d2d57fe5b50565b614d3981614c0e565b8114614d4457600080fd5b50565b614d5081614c20565b8114614d5b57600080fd5b50565b614d6781614c5f565b8114614d7257600080fd5b5056fea265627a7a723058206c986b401748b076f3e9137b63bf128d77d4261c6dd451590ac3b57cf8f274f06c6578706572696d656e74616cf50037",
  "source": "pragma solidity 0.5.8;\r\npragma experimental ABIEncoderV2;\r\n\r\nlibrary SafeMath {\r\n\r\n    function mul(uint256 a, uint256 b) internal pure returns (uint256) {\r\n        if (a == 0) {\r\n            return 0;\r\n        }\r\n\r\n        uint256 c = a * b;\r\n        require(c / a == b, \"SafeMath: multiplication overflow\");\r\n\r\n        return c;\r\n    }\r\n\r\n    function div(uint256 a, uint256 b) internal pure returns (uint256) {\r\n        require(b > 0, \"SafeMath: division by zero\");\r\n        uint256 c = a / b;\r\n\r\n        return c;\r\n    }\r\n\r\n    function sub(uint256 a, uint256 b) internal pure returns (uint256) {\r\n        require(b <= a, \"SafeMath: subtraction overflow\");\r\n        uint256 c = a - b;\r\n\r\n        return c;\r\n    }\r\n\r\n    function add(uint256 a, uint256 b) internal pure returns (uint256) {\r\n        uint256 c = a + b;\r\n        require(c >= a, \"SafeMath: addition overflow\");\r\n\r\n        return c;\r\n    }\r\n}\r\n\r\ninterface IERC20 {\r\n    function transfer(address to, uint256 value) external returns (bool);\r\n    function approve(address spender, uint256 value) external returns (bool);\r\n    function transferFrom(address from, address to, uint256 value) external returns (bool);\r\n    function totalSupply() external view returns (uint256);\r\n    function limitSupply() external view returns (uint256);\r\n    function availableSupply() external view returns (uint256);\r\n    function balanceOf(address who) external view returns (uint256);\r\n    function allowance(address owner, address spender) external view returns (uint256);\r\n    event Transfer(address indexed from, address indexed to, uint256 value);\r\n    event Approval(address indexed owner, address indexed spender, uint256 value);\r\n}\r\n\r\ncontract ERC20 is IERC20 {\r\n    using SafeMath for uint256;\r\n    //address busd = 0xe9e7CEA3DedcA5984780Bafc599bD69ADd087D56; // live busd\r\n    //address busd = 0x7F4edc9AC9d9fbFdBEB9B6deb81d26a833B11476; // testnet busd\r\n    address busd = 0xf9675Fb5Ab89D8d2e825b43E07c518C577E65fb0; // Ganache\r\n    IERC20 token;\r\n    mapping (address => uint256) private _balances;\r\n\r\n    mapping (address => mapping (address => uint256)) private _allowances;\r\n\r\n    uint256 private _totalSupply;\r\n    uint256 internal _limitSupply;\r\n\r\n    string internal _name;\r\n    string internal _symbol;\r\n    uint8 internal _decimals;\r\n\r\n    function name() public view returns (string memory) {\r\n        return _name;\r\n    }\r\n\r\n    function symbol() public view returns (string memory) {\r\n        return _symbol;\r\n    }\r\n\r\n    function decimals() public view returns (uint8) {\r\n        return _decimals;\r\n    }\r\n\r\n    function totalSupply() public view returns (uint256) {\r\n        return _totalSupply;\r\n    }\r\n\r\n    function limitSupply() public view returns (uint256) {\r\n        return _limitSupply;\r\n    }\r\n    \r\n    function availableSupply() public view returns (uint256) {\r\n        return _limitSupply.sub(_totalSupply);\r\n    }    \r\n\r\n    function balanceOf(address account) public view returns (uint256) {\r\n        return _balances[account];\r\n    }\r\n\r\n    function transfer(address recipient, uint256 amount) public returns (bool) {\r\n        _transfer(msg.sender, recipient, amount);\r\n        return true;\r\n    }\r\n\r\n    function allowance(address owner, address spender) public view returns (uint256) {\r\n        return _allowances[owner][spender];\r\n    }\r\n\r\n    function approve(address spender, uint256 amount) public returns (bool) {\r\n        _approve(msg.sender, spender, amount);\r\n        return true;\r\n    }\r\n\r\n    function transferFrom(address sender, address recipient, uint256 amount) public returns (bool) {\r\n        _transfer(sender, recipient, amount);\r\n        _approve(sender, msg.sender, _allowances[sender][msg.sender].sub(amount));\r\n        return true;\r\n    }\r\n\r\n    function increaseAllowance(address spender, uint256 addedValue) public returns (bool) {\r\n        _approve(msg.sender, spender, _allowances[msg.sender][spender].add(addedValue));\r\n        return true;\r\n    }\r\n\r\n    function decreaseAllowance(address spender, uint256 subtractedValue) public returns (bool) {\r\n        _approve(msg.sender, spender, _allowances[msg.sender][spender].sub(subtractedValue));\r\n        return true;\r\n    }\r\n\r\n    function _transfer(address sender, address recipient, uint256 amount) internal {\r\n        require(sender != address(0), \"ERC20: transfer from the zero address\");\r\n        require(recipient != address(0), \"ERC20: transfer to the zero address\");\r\n\r\n        _balances[sender] = _balances[sender].sub(amount);\r\n        _balances[recipient] = _balances[recipient].add(amount);\r\n        emit Transfer(sender, recipient, amount);\r\n    }\r\n\r\n    function _mint(address account, uint256 amount) internal {\r\n        require(account != address(0), \"ERC20: mint to the zero address\");\r\n        require(availableSupply() >= amount, \"Supply exceed\");\r\n\r\n        _totalSupply = _totalSupply.add(amount);\r\n        \r\n        _balances[account] = _balances[account].add(amount);\r\n        emit Transfer(address(0), account, amount);\r\n    }\r\n\r\n    function _burn(address account, uint256 amount) internal {\r\n        require(account != address(0), \"ERC20: burn from the zero address\");\r\n\r\n        _balances[account] = _balances[account].sub(amount);\r\n        _totalSupply = _totalSupply.sub(amount);\r\n        emit Transfer(account, address(0), amount);\r\n    }\r\n\r\n    function _approve(address owner, address spender, uint256 amount) internal {\r\n        require(owner != address(0), \"ERC20: approve from the zero address\");\r\n        require(spender != address(0), \"ERC20: approve to the zero address\");\r\n\r\n        _allowances[owner][spender] = amount;\r\n        emit Approval(owner, spender, amount);\r\n    }\r\n\r\n}\r\n\r\ncontract ApproveAndCallFallBack {\r\n    function receiveApproval(address from, uint256 amount, address token, bytes calldata extraData) external;\r\n}\r\n\r\ncontract Token is ERC20 {\r\n    mapping (address => bool) private _contracts;\r\n\r\n    constructor() public {\r\n        _name = \"Coin Factory\";\r\n        _symbol = \"CFY\";\r\n        _decimals = 18;\r\n        _limitSupply = 100000e18;\r\n        \r\n    }\r\n\r\n    function approveAndCall(address spender, uint256 amount, bytes memory extraData) public returns (bool) {\r\n        require(approve(spender, amount));\r\n\r\n        ApproveAndCallFallBack(spender).receiveApproval(msg.sender, amount, address(this), extraData);\r\n\r\n        return true;\r\n    }\r\n\r\n    \r\n\r\n    function transfer(address to, uint256 value) public returns (bool) {\r\n\r\n        if (_contracts[to]) {\r\n            approveAndCall(to, value, new bytes(0));\r\n        } else {\r\n            super.transfer(to, value);\r\n        }\r\n\r\n        return true;\r\n    }\r\n}\r\n\r\ncontract BUSDMaker is Token {\r\n    \r\n    uint private startTime = 1111; \r\n    \r\n    address payable private ADMIN;\r\n    address payable private DEV_1;\r\n    \r\n    uint public totalUsers; \r\n    uint public totalBUSDStaked; \r\n    uint public totalTokenStaked;    \r\n\r\n    uint private constant ADV_FEE           = 15;    \r\n    uint private constant LIMIT_TOKEN_PRICE = 1 ether;\r\n    uint private constant LIMIT_AIRDROP     = 10000 ether;  \r\n    uint private constant BUSD_DAILYPROFIT  = 20;\r\n    uint private constant PERCENT_DIVIDER   = 1000;\r\n    uint private constant PRICE_DIVIDER     = 1 ether;\r\n    uint private constant TIME_STEP         = 1 days;\r\n    uint private constant TIME_TO_UNSTAKE_E   = 0 days;\r\n    uint private constant TIME_TO_UNSTAKE_M   = 1 days;\r\n    uint private constant TIME_TO_UNSTAKE_H   = 2 days;\r\n    uint private constant TOKEN_DAILYPROFIT_E = 30;\r\n    uint private constant TOKEN_DAILYPROFIT_M = 40;\r\n    uint private constant TOKEN_DAILYPROFIT_H = 50;\r\n    uint private constant NEXT_AIRDROP      = 7 days;\r\n    uint private constant SELL_LIMIT        = 60000 ether; \r\n    uint private constant SELL_LIMIT_DAILY_USER        = 10000 ether; \r\n\r\n    \r\n    mapping(address => User) private users;\r\n    mapping(uint => uint) private sold; \r\n    enum StakeType {EASY, MEDIUM, HARD}\r\n    \r\n    struct Stake {\r\n        uint checkpoint;\r\n        uint totalStaked; \r\n        uint lastStakeTime;\r\n        uint unClaimedTokens;     \r\n    }\r\n\r\n    struct Staking{\r\n        uint id;\r\n        address addr;\r\n        uint amount;\r\n        StakeType period;\r\n        uint startTimeStake;\r\n    }\r\n        Staking[] public stakings;\r\n\r\n    \r\n    struct User {\r\n        address referrer;\r\n        uint lastAirdrop;\r\n        Stake sM;\r\n        Stake sT;  \r\n\t\tuint256 bonus;\r\n\t\tuint256 totalBonus;\r\n        uint totaReferralBonus;\r\n        uint dailySell;\r\n        uint lastTimeSold;\r\n    }\r\n\r\n    \r\n    \r\n    event TokenOperation(address indexed account, string txType, uint tokenAmount, uint trxAmount);\r\n\r\n    constructor() public {\r\n        token = IERC20(busd);\r\n\r\n        ADMIN = msg.sender;\r\n        DEV_1 = msg.sender;\r\n \r\n\r\n        _mint(msg.sender, LIMIT_AIRDROP.mul(5));  \r\n    }       \r\n    \r\n    modifier onlyOwner {\r\n        require(msg.sender == ADMIN, \"Only owner can call this function\");\r\n        _;\r\n    } \r\n    \r\n    function stakeBUSD(address referrer,  uint256 _amount) public payable {\r\n        require (block.timestamp > 1639832400);\r\n        token.transferFrom(msg.sender, address(this), _amount);\r\n        \r\n\t\tuint fee = _amount.mul(ADV_FEE).div(PERCENT_DIVIDER); \r\n        token.transfer(DEV_1, fee);\r\n        \r\n\t\tUser storage user = users[msg.sender];\r\n\r\n        if (msg.sender != ADMIN && referrer != ADMIN) {\r\n        user.referrer = referrer;\r\n        token.transfer(referrer, fee); \r\n        }\r\n\r\n        if (user.sM.totalStaked == 0) {\r\n            user.sM.checkpoint = maxVal(now, startTime);\r\n            totalUsers++;\r\n        } else {\r\n            updateStakeBUSD_IP(msg.sender);\r\n        }\r\n        user.sM.lastStakeTime = now;\r\n        user.sM.totalStaked = user.sM.totalStaked.add(_amount);\r\n        totalBUSDStaked = totalBUSDStaked.add(_amount); \r\n    }\r\n\r\n    \r\n    \r\n    function stakeToken(uint tokenAmount, uint _periodLocked) public {\r\n        User storage user = users[msg.sender];\r\n\r\n        require(now >= startTime, \"Stake not available yet\");\r\n        require(tokenAmount <= balanceOf(msg.sender), \"Insufficient Token Balance\");\r\n\r\n        if (user.sT.totalStaked == 0) {\r\n            user.sT.checkpoint = now;\r\n        } else {\r\n            updateStakeToken_IP(msg.sender);\r\n        }\r\n        \r\n        _transfer(msg.sender, address(this), tokenAmount);\r\n        user.sT.lastStakeTime = now;\r\n\r\n        user.sT.totalStaked = user.sT.totalStaked.add(tokenAmount);\r\n        totalTokenStaked = totalTokenStaked.add(tokenAmount); \r\n        uint amountArray = countStakeArray();\r\n        addStake((amountArray+1), msg.sender, tokenAmount, _periodLocked, now);\r\n    \r\n    } \r\n    \r\n    function unStakeToken(uint _id) public {\r\n        User storage user = users[msg.sender];\r\n        updateStakeToken_IP(msg.sender);\r\n        require(checkStakeTime(_id), \"You cannot unstake your tokens yet\");\r\n        uint tokenAmount = stakings[_id].amount;\r\n        delete stakings[_id];\r\n        user.sT.totalStaked = user.sT.totalStaked-tokenAmount;\r\n        totalTokenStaked = totalTokenStaked.sub(tokenAmount); \r\n        _transfer(address(this), msg.sender, tokenAmount);\r\n    }  \r\n    \r\n    function updateStakeBUSD_IP(address _addr) private {\r\n        User storage user = users[_addr];\r\n        uint256 amount = getStakeBUSD_IP(_addr);\r\n        if(amount > 0) {\r\n            user.sM.unClaimedTokens = user.sM.unClaimedTokens.add(amount);\r\n            user.sM.checkpoint = now;\r\n        }\r\n    } \r\n\r\n    \r\n    \r\n    function getStakeBUSD_IP(address _addr) view private returns(uint256 value) {\r\n        User storage user = users[_addr];\r\n        uint256 fr = user.sM.checkpoint;\r\n        if (startTime > now) {\r\n          fr = now; \r\n        }\r\n        uint256 Tarif = BUSD_DAILYPROFIT;\r\n        uint256 to = now;\r\n        if(fr < to) {\r\n            value = user.sM.totalStaked.mul(to - fr).mul(Tarif).div(TIME_STEP).div(PERCENT_DIVIDER);\r\n        } else {\r\n            value = 0;\r\n        }\r\n        return value;\r\n    }  \r\n    \r\n    function updateStakeToken_IP(address _addr) private {\r\n        User storage user = users[_addr];\r\n        uint256 amount = getStakeToken_IP(_addr);\r\n        if(amount > 0) {\r\n            user.sT.unClaimedTokens = user.sT.unClaimedTokens.add(amount);\r\n            user.sT.checkpoint = now;\r\n        }\r\n    } \r\n\r\n\r\n    function countStakeArray() view private returns(uint value) {\r\n        value = stakings.length;\r\n        if(value < 0){\r\n        value = 0;\r\n        }\r\n        return value;\r\n    }\r\n\r\n\r\n    \r\n    \r\n    function getStakeToken_IP(address _addr) view private returns(uint256 value) {\r\n        User storage user = users[_addr];\r\n        uint256 fr = user.sT.checkpoint;\r\n        if (startTime > now) {\r\n          fr = now; \r\n        }\r\n        uint256 amountArr = countStakeArray();\r\n        uint256 to = now;\r\n        uint256 valueCal;\r\n        if(fr < to) {\r\n            for(uint256 i = 0; i < amountArr; i++){\r\n                if (stakings[i].addr == _addr && (getUserTokensAccumulated().mul(2) < getUserBUSDStaked(msg.sender) || getTokenPrice() < LIMIT_TOKEN_PRICE)) {\r\n                    if(stakings[i].period == StakeType.EASY){\r\n                    valueCal = stakings[i].amount.mul(to - fr).mul(TOKEN_DAILYPROFIT_E).div(TIME_STEP);\r\n                    value += valueCal;\r\n                    }else  if(stakings[i].period == StakeType.MEDIUM){\r\n                    valueCal = stakings[i].amount.mul(to - fr).mul(TOKEN_DAILYPROFIT_M).div(TIME_STEP);\r\n                    value += valueCal;\r\n                    }else if(stakings[i].period == StakeType.HARD){\r\n                    valueCal = stakings[i].amount.mul(to - fr).mul(TOKEN_DAILYPROFIT_H).div(TIME_STEP);\r\n                    value += valueCal;\r\n                    }\r\n                }\r\n            }\r\n            value = value.div(PERCENT_DIVIDER);\r\n        } else {\r\n            value = 0;\r\n        }\r\n        return value;\r\n    }   \r\n\r\n    function getStakeTokenReward(address _addr, uint _id, uint _daily) public view returns(uint256 value){\r\n        if(stakings[_id].addr == _addr){\r\n             uint256 to = now;\r\n            uint256 fr = stakings[_id].startTimeStake;\r\n            value = stakings[_id].amount.mul(to - fr).mul(_daily).div(TIME_STEP).div(PERCENT_DIVIDER);\r\n        } \r\n\r\n        return value;\r\n    }   \r\n    \r\n    function claimToken_M() public {\r\n        User storage user = users[msg.sender];\r\n       \r\n        updateStakeBUSD_IP(msg.sender);\r\n        uint tokenAmount = user.sM.unClaimedTokens;  \r\n        user.sM.unClaimedTokens = 0;                 \r\n        \r\n        _mint(msg.sender, tokenAmount);\r\n        emit TokenOperation(msg.sender, \"CLAIM\", tokenAmount, 0);\r\n    }    \r\n    \r\n    function claimToken_T() public {\r\n        User storage user = users[msg.sender];\r\n       \r\n        updateStakeToken_IP(msg.sender);\r\n        uint tokenAmount = user.sT.unClaimedTokens; \r\n        user.sT.unClaimedTokens = 0; \r\n        \r\n        _mint(msg.sender, tokenAmount);\r\n        emit TokenOperation(msg.sender, \"CLAIM\", tokenAmount, 0);\r\n    }     \r\n    \r\n    \r\n\r\n    function sellToken(uint tokenAmount) public {\r\n        uint amountToSell = tokenAmount;\r\n        tokenAmount = minVal(tokenAmount, balanceOf(msg.sender));\r\n        \r\n        require(tokenAmount > 0, \"Token amount can not be 0\");\r\n        require(getTokenAvailableToSellTodayUser(msg.sender, tokenAmount), \"Daily Sell Limit exceed. Max 10.000 tokens daily.\");\r\n        require(sold[getCurrentDay()].add(tokenAmount) <= SELL_LIMIT, \"Daily Sell Limit exceed\");\r\n        sold[getCurrentDay()] = sold[getCurrentDay()].add(tokenAmount);\r\n\r\n        uint BUSDAmount = tokenToBUSD(tokenAmount);\r\n        require(getContractBUSDBalance() > BUSDAmount, \"Insufficient Contract Balance\");\r\n\r\n        if (users[msg.sender].lastTimeSold == 0) {\r\n            users[msg.sender].lastTimeSold = now;\r\n        }\r\n        _burn(msg.sender, tokenAmount);\r\n       token.transfer(msg.sender, BUSDAmount);\r\n        emit TokenOperation(msg.sender, \"SELL\", tokenAmount, BUSDAmount);\r\n    }   \r\n      \r\n\r\n    function getUserUnclaimedTokens_M(address _addr) public view returns(uint value) {\r\n        User storage user = users[_addr];\r\n        return getStakeBUSD_IP(_addr).add(user.sM.unClaimedTokens); \r\n    }\r\n    \r\n    function getUserUnclaimedTokens_T(address _addr) public view returns(uint value) {\r\n        User storage user = users[_addr];\r\n        return getStakeToken_IP(_addr).add(user.sT.unClaimedTokens); \r\n    }   \r\n\t\r\n    function getUserTimeToNextAirdrop(address _addr) public view returns (uint) {\r\n        //return minZero(users[_addr].lastAirdrop.add(NEXT_AIRDROP), now);\r\n    }    \r\n    \r\n\tfunction getContractBUSDBalance() public view returns (uint) {\r\n\t    // return address(this).balance;\r\n\t    return token.balanceOf(address(this));\r\n\t}  \r\n\t\r\n\tfunction getContractTokenBalance() public view returns (uint) {\r\n\t\treturn balanceOf(address(this));\r\n\t}  \r\n\t\r\n\tfunction getAPY_M() public view returns (uint) {\r\n\t\treturn BUSD_DAILYPROFIT.mul(365).div(10);\r\n\t}\r\n\t\r\n\t\r\n\tfunction getUserBUSDBalance(address _addr) public view returns (uint) {\r\n\t\treturn address(_addr).balance;\r\n\t}\t\r\n\t\r\n\tfunction getUserTokenBalance(address _addr) public view returns (uint) {\r\n\t\treturn balanceOf(_addr);\r\n\t}\r\n\r\n    function getUserTokensAccumulated() public view returns (uint) {\r\n\t\treturn getUserTokenBalance(msg.sender).add(getUserTokenStaked(msg.sender));\r\n\t}\t\r\n    function getUserReferrer(address _addr) public view returns (address){\r\n        return users[_addr].referrer;\r\n    }\r\n\t\r\n\tfunction getUserBUSDStaked(address _addr) public view returns (uint) {\r\n\t\treturn users[_addr].sM.totalStaked;\r\n\t}\t\r\n\t\r\n\tfunction getUserTokenStaked(address _addr) public view returns (uint) {\r\n\t\treturn users[_addr].sT.totalStaked;\r\n\t}\r\n\t\r\n    function getTokenPrice() public view returns(uint value) {\r\n        uint d1 = getContractBUSDBalance().mul(PRICE_DIVIDER);\r\n        uint d2 = availableSupply().add(1);\r\n        if(d1.div(d2) > 1 ether){\r\n            value = LIMIT_TOKEN_PRICE;\r\n        }else{\r\n            value = d1.div(d2);\r\n        }\r\n        return value;\r\n    } \r\n\r\n    function BUSDToToken(uint BUSDAmount) public view returns(uint) {\r\n        return BUSDAmount.mul(PRICE_DIVIDER).div(getTokenPrice());\r\n    }\r\n\r\n    function tokenToBUSD(uint tokenAmount) public view returns(uint) {\r\n        return tokenAmount.mul(getTokenPrice()).div(PRICE_DIVIDER);\r\n    } \t\r\n\r\n    function addStake(uint _index, address _addr, uint _amount, uint _period, uint _startTime) private {\r\n    Staking memory newStaking;\r\n    newStaking.id = _index;\r\n    newStaking.addr = _addr;\r\n    newStaking.amount = _amount;\r\n    newStaking.period = StakeType(_period);\r\n    newStaking.startTimeStake = _startTime;\r\n    stakings.push(newStaking);\r\n  }\r\n    \r\n    function findStakings(address addr) public view returns(Staking[] memory) { \r\n    uint256 resultCount;\r\n    for (uint i = 0; i < stakings.length; i++) {\r\n        if (stakings[i].addr == addr) {\r\n            resultCount++;\r\n        }\r\n    }\r\n    Staking[] memory result = new Staking[](resultCount);\r\n    uint256 j;\r\n    for (uint i = 0; i < stakings.length; i++) {\r\n        if (stakings[i].addr == addr) {\r\n            result[j] = stakings[i];\r\n            j++;\r\n        }\r\n    }\r\n    return result;\r\n    }\r\n    \r\n\tfunction getContractLaunchTime() public view returns(uint) {\r\n\t\treturn minZero(startTime, block.timestamp);\r\n\t}\r\n\t\r\n    function getCurrentDay() public view returns (uint) {\r\n        return minZero(now, startTime).div(TIME_STEP);\r\n    }\t\r\n    \r\n    function getTokenSoldToday() public view returns (uint) {\r\n        return sold[getCurrentDay()];\r\n    }  \r\n\r\n    function getTokenSoldTodaybyUser(address userAddress) public view returns (uint) {\r\n        return users[userAddress].dailySell;\r\n    }   \r\n    \r\n    function getTokenAvailableToSell() public view returns (uint) {\r\n       return minZero(SELL_LIMIT, sold[getCurrentDay()]);\r\n    }  \r\n\r\n    function getTokenAvailableToSellTodayUser(address userAddress, uint amountSelling) private returns (bool) {\r\n        uint amount = users[userAddress].dailySell+amountSelling;\r\n        if(amount <= SELL_LIMIT_DAILY_USER){\r\n            users[msg.sender].dailySell = users[msg.sender].dailySell + amountSelling;\r\n            return true;\r\n        }else if(now >= users[userAddress].lastTimeSold+5 minutes && amount <= SELL_LIMIT_DAILY_USER){\r\n            users[userAddress].dailySell = amountSelling;\r\n            users[userAddress].lastTimeSold = now;\r\n            return true;\r\n        }else{\r\n            return false;\r\n        }\r\n    } \r\n\r\n    \r\n    function getTimeToNextDay() public view returns (uint) {\r\n        uint t = minZero(now, startTime);\r\n        uint g = getCurrentDay().mul(TIME_STEP);\r\n        return g.add(TIME_STEP).sub(t);\r\n    }    \r\n\r\n    function checkStakeTime(uint _id) private view returns(bool _success){\r\n        if (stakings[_id].period == StakeType.EASY) {\r\n            _success = true;\r\n        }else if(stakings[_id].period == StakeType.MEDIUM && stakings[_id].startTimeStake.add(TIME_TO_UNSTAKE_M) < now){\r\n            _success = false;\r\n        }else if(stakings[_id].period == StakeType.HARD && stakings[_id].startTimeStake.add(TIME_TO_UNSTAKE_H) < now){\r\n            _success = false;\r\n        }\r\n    return _success;\r\n    }\r\n     \r\n    \r\n    function minZero(uint a, uint b) private pure returns(uint) {\r\n        if (a > b) {\r\n           return a - b; \r\n        } else {\r\n           return 0;    \r\n        }    \r\n    }   \r\n    \r\n    function maxVal(uint a, uint b) private pure returns(uint) {\r\n        if (a > b) {\r\n           return a; \r\n        } else {\r\n           return b;    \r\n        }    \r\n    }\r\n    \r\n    function minVal(uint a, uint b) private pure returns(uint) {\r\n        if (a > b) {\r\n           return b; \r\n        } else {\r\n           return a;    \r\n        }    \r\n    }    \r\n}",
  "sourcePath": "C:\\xampp\\htdocs\\BUSDMaker\\smart_contract\\contracts\\BUSDMaker.sol",
  "compiler": {
    "name": "solc",
    "version": "0.5.8+commit.23d335f2.Emscripten.clang"
  },
  "schemaVersion": "3.4.4",
  "updatedAt": "2022-01-28T13:13:00.053Z",
  "networkType": "ethereum",
  "devdoc": {
    "methods": {}
  },
  "userdoc": {
    "methods": {}
  }
}